:100000000C945D000C9485000C9485000C94850084
:100010000C9485000C9485000C9485000C9485004C
:100020000C9485000C9485000C9485000C9485003C
:100030000C9485000C9485000C9485000C9485002C
:100040000C94C6030C9485000C9478060C94AA06B4
:100050000C9485000C9485000C9485000C9485000C
:100060000C9485000C94850000000008000201003B
:100070000003040700000000000000000102040863
:100080001020408001020408102001020408102002
:10009000040404040404040402020202020203032E
:1000A0000303030300000000250028002B000000CC
:1000B0000000240027002A00DA0611241FBECFEF1B
:1000C000D8E0DEBFCDBF12E0A0E0B1E0E4E0F4E1B3
:1000D00002C005900D92A030B107D9F722E0A0E050
:1000E000B2E001C01D92A03CB207E1F710E0CAEBFC
:1000F000D0E004C02297FE010E94ED09C83BD10761
:10010000C9F70E941E070C9493090C940000AF924B
:10011000BF92CF92DF92EF92FF920F931F93CF93F4
:10012000DF9300D0CDB7DEB7D82EC92EE62EF42E41
:10013000890187EA91E05A8379830E946C085C0107
:100140005A8179810097F1F1FC01D082C182E2826B
:100150007383F482558317830683118610860E9469
:100160001004F5016287738784879587108A178644
:10017000168620E030E0F501E20FF31F128A118AA3
:100180002E5F3F4F2039F1E03F07A9F7F501EF550A
:10019000FE4F118210820E941C04F501ED55FE4FA6
:1001A000608371838283938361E08D2D0E94220599
:1001B00061E08E2D0E94220561E08F2D0E942205B4
:1001C000C50102C080E090E00F900F90DF91CF91C9
:1001D0001F910F91FF90EF90DF90CF90BF90AF9065
:1001E0000895FC01408B6787089560E070E020E08F
:1001F00030E0A901FC01E60FF71F0188F289E02D2C
:100200002E0F3F1F411D511D6E5F7F4F6039E1E092
:100210007E0781F7A2E3B4E00E94E00920E137E223
:1002200040E050E00E94BE09CA01B90108954F9212
:100230005F926F927F92AF92BF92CF92DF92EF92D6
:10024000FF920F931F93CF93DF93EC010E94100452
:100250006B017C010E941C042B013C018E010D5599
:100260001E4FF80180819181A281B38188539D4CFA
:10027000AF4FBF4F481659066A067B06D0F032973B
:1002800080819181019668EC70E00E9496095C0182
:10029000918380838E810E947D04F501EE0FFF1F04
:1002A000EC0FFD1F928B818BF8014082518262829C
:1002B000738288859985009721F0019709F443C0DE
:1002C00056C0CE010E94F5006F3F704E854F95409D
:1002D00008F063C08E859F85891799F060E088815A
:1002E0000E945B0560E08A810E945B056F858C81BE
:1002F0000E945B058F858E8781E090E099878887D3
:1003000031C0811108C0688970E088810E949A0418
:1003100060E070E007C060E070E088810E949A04AD
:10032000688970E08A81DF91CF911F910F91FF90D2
:10033000EF90DF90CF90BF90AF907F906F905F90E5
:100340004F900C949A044A855B856C857D854E5C44
:100350005F4F6F4F7F4F4C155D056E057F05E8F4CD
:1003600019861886CA86DB86EC86FD8616C060E094
:1003700088810E945B0560E08A81DF91CF911F91A7
:100380000F91FF90EF90DF90CF90BF90AF907F9054
:100390006F905F904F900C945B05DF91CF911F9110
:1003A0000F91FF90EF90DF90CF90BF90AF907F9034
:1003B0006F905F904F900895CF93DF93E1E6F0E068
:1003C00080E88083108283E00E947A04C8E0D1E054
:1003D00061E088810E94220561E0809106010E940F
:1003E000220523E130E042E050E069E070E08AE07D
:1003F00090E00E94870090931402809313022EE0F5
:1004000030E044E050E065E070E086E090E00E947B
:1004100087009093120280931102109210021092A2
:100420000F0226E040E052EC61E070E08FE192E0E4
:100430000E94100863E371E08FE192E00E94DC0506
:1004400061E08881DF91CF910C945B05FC016B35F5
:1004500011F4178608956D3519F481E0808B0895A5
:1004600087858F3018F0608381E005C0DF01A80F19
:10047000B11D6C938F5F878708958153863130F467
:10048000E82FF0E0E753FE4F8081089580E0089563
:100490001F93CF93DF93CDB7DEB7A8970FB6F8942D
:1004A000DEBF0FBECDBFAC0188E2EBE0F1E0DE01C4
:1004B000119601900D928A95E1F7A0E080E090E01E
:1004C0002A2F30E02617370734F4FA01E20FF31F22
:1004D00010811A3371F460E071E00E94AA09A896B5
:1004E0000FB6F894DEBF0FBECDBFDF91CF911F9145
:1004F0000895E1E0F0E0EC0FFD1FE20FF31F208113
:10050000120390011124820F931FAF5FD9CF8F92F6
:100510009F92AF92BF92CF92DF92EF92FF920F9392
:100520001F93CF93DF93CDB7DEB728970FB6F8941C
:10053000DEBF0FBECDBF8C01FC018785893009F07D
:1005400080C0D080FDE2DF1619F08BE2D812D9C04E
:10055000F801F380FDE2FF1619F08BE2F812D1C02A
:10056000F80186818A3309F0CCC081810E943D0266
:10057000982EF80182810E943D02A82EF801848104
:100580000E943D02B82EF80185810E943D02C82ECE
:10059000F80187810E943D02E82EF80180850E94C3
:1005A0003D02882EF0E1EF9E800C112469E070E09E
:1005B000C8010E944802E82E809115028823D9F0D4
:1005C0006DE671E08FE192E00E94CF05EE2DE2959D
:1005D000EF70F0E0E754FE4F60818FE192E00E94FF
:1005E000D105EE2DEF70F0E0E754FE4F60818FE112
:1005F00092E00E94EE05E81429F08091150288230C
:1006000009F47FC04A2D80E1989E400D112461E0DD
:100610009DE2D91260E080911302909114020E9431
:10062000F1004C2DE0E1BE9E400D112461E0FDE2A1
:10063000FF1260E080911102909112020E94F1007D
:1006400060C08530F9F486E0EBEAF1E0DE01119656
:1006500001900D928A95E1F7FE013196D801CE0105
:10066000069631912D9132134CC0E817F907C9F75E
:1006700081E08093150261E871E08FE192E00E94D1
:10068000DC053FC08730E9F588E0E1EBF1E0DE0111
:10069000119601900D928A95E1F7FE013196D801ED
:1006A000CE01089631912D9132132BC0E817F9072E
:1006B000C9F764E971E08FE192E00E94CF05809173
:1006C0001302909114020E94F500AB01BC012AE0D4
:1006D00030E08FE192E00E9459066FE971E08FE10E
:1006E00092E00E94CF0580911102909112020E9427
:1006F000F500AB01BC012AE030E08FE192E00E94FE
:100700006606F8011786108A28960FB6F894DEBFA1
:100710000FBECDBFDF91CF911F910F91FF90EF9052
:10072000DF90CF90BF90AF909F908F900895CF9320
:100730008FE192E00E942D07892B99F08FE192E0E2
:100740000E944607C82F682F80E092E00E94260290
:1007500080911502882329F06C2F8FE192E00E948E
:10076000D10580911002882321F080E092E00E9460
:10077000870280911302909114020E9417018091C8
:10078000110290911202CF910C9417011F920F92B7
:100790000FB60F9211242F933F938F939F93AF9394
:1007A000BF938091170290911802A0911902B09105
:1007B0001A023091160226E0230F2D3720F40296FC
:1007C000A11DB11D05C029E8230F0396A11DB11D70
:1007D000209316028093170290931802A093190297
:1007E000B0931A0280911B0290911C02A0911D02ED
:1007F000B0911E020196A11DB11D80931B02909322
:100800001C02A0931D02B0931E02BF91AF919F9155
:100810008F913F912F910F900FBE0F901F901895C1
:100820002FB7F89460911702709118028091190205
:1008300090911A022FBF08953FB7F89480911B0240
:1008400090911C02A0911D02B0911E0226B5A89B9A
:1008500005C02F3F19F00196A11DB11D3FBF6627AE
:10086000782F892F9A2F620F711D811D911D43E0F2
:10087000660F771F881F991F4A95D1F708957894BE
:1008800084B5826084BD84B5816084BD85B5826095
:1008900085BD85B5816085BDEEE6F0E08081816033
:1008A0008083E1E8F0E01082808182608083808133
:1008B00081608083E0E8F0E0808181608083E1EB0B
:1008C000F0E0808184608083E0EBF0E080818160F3
:1008D0008083EAE7F0E080818460808380818260A9
:1008E000808380818E7F8083808180688083109266
:1008F000C100089580930A0108958E3008F08E504B
:10090000877020910A0190E4299F90011124822B85
:1009100080937C0080917A00806480937A0080913B
:100920007A0086FDFCCF809178002091790090E0DC
:10093000922B08951F93CF93DF93182FEB0161E063
:100940000E942205209711F460E004C0CF3FD1053A
:1009500039F461E0812FDF91CF911F910C945B05F9
:10096000E12FF0E0E859FF4FE491E330F9F048F46B
:10097000E130B9F0E230A1F584B5806284BDC8BD34
:1009800034C0E730E9F0E83019F1E43049F58091FE
:100990008000806280938000D0938B00C0938A0097
:1009A00024C084B5806884BDC7BD1FC0809180000D
:1009B000806880938000D0938900C093880015C020
:1009C0008091B00080688093B000C093B3000DC0E8
:1009D0008091B00080628093B000C093B40005C0E5
:1009E000C038D1050CF0B5CFAFCFDF91CF911F91BB
:1009F0000895833081F028F4813099F08230A1F09D
:100A000008958730A9F08830B9F08430D1F480910E
:100A100080008F7D03C0809180008F77809380005D
:100A2000089584B58F7702C084B58F7D84BD089505
:100A30008091B0008F7703C08091B0008F7D80934C
:100A4000B0000895CF93DF9390E0FC01E458FF4F8E
:100A50002491FC01E057FF4F8491882349F190E0F5
:100A6000880F991FFC01E255FF4FA591B4918C5559
:100A70009F4FFC01C591D4919FB7611108C0F894B4
:100A80008C91209582238C93888182230AC06230C6
:100A900051F4F8948C91322F309583238C93888174
:100AA000822B888304C0F8948C91822B8C939FBFF7
:100AB000DF91CF9108950F931F93CF93DF931F92F0
:100AC000CDB7DEB7282F30E0F901E859FF4F849108
:100AD000F901E458FF4F1491F901E057FF4F0491D9
:100AE0000023C9F0882321F069830E94F9046981F9
:100AF000E02FF0E0EE0FFF1FEC55FF4FA591B491F2
:100B00009FB7F8948C91611103C01095812301C0A7
:100B1000812B8C939FBF0F90DF91CF911F910F91ED
:100B20000895CF92DF92EF92FF920F931F93CF938E
:100B3000DF936C017A01EB01E60EF71E00E010E096
:100B4000CE15DF0561F06991D601ED91FC91019020
:100B5000F081E02DC6010995080F191FF1CFC801DA
:100B6000DF91CF911F910F91FF90EF90DF90CF9089
:100B700008956115710581F0DB010D900020E9F702
:100B8000AD0141505109461B570BDC01ED91FC9121
:100B90000280F381E02D099480E090E008950C94A8
:100BA000B905DC01ED91FC910190F081E02D0994F3
:100BB0006FED71E00C94B9050F931F93CF93DF9302
:100BC000EC010E94B9058C01CE010E94D805800F6E
:100BD000911FDF91CF911F910F9108950F931F9354
:100BE000CF93DF93EC010E94D1058C01CE010E94CE
:100BF000D805800F911FDF91CF911F910F9108951C
:100C00008F929F92AF92BF92CF92DF92EF92FF921C
:100C10000F931F93CF93DF93CDB7DEB7A1970FB696
:100C2000F894DEBF0FBECDBF7C01C42EE52FCB01F3
:100C3000D22E19A221E02D1510F02AE0D22E8E011D
:100C40000F5D1F4F8D2C912CA12CB12C6C2D7E2F64
:100C5000A50194010E94BE098C2DD29E80191124F9
:100C6000015011098A3014F4805D01C0895CF801DB
:100C70008083211531054105510521F0C22EE32F56
:100C8000CA01E4CFB801C7010E94B905A1960FB609
:100C9000F894DEBF0FBECDBFDF91CF911F910F91B2
:100CA000FF90EF90DF90CF90BF90AF909F908F908C
:100CB00008952115310541F4DC01ED91FC9101907D
:100CC000F081E02D642F09940C9400060F931F937C
:100CD000CF93DF93EC010E9459068C01CE010E9454
:100CE000D805800F911FDF91CF911F910F9108952B
:100CF0001F920F920FB60F9211242F938F939F93F1
:100D0000EF93FF93E0912F02F09130028081E09108
:100D10003502F091360282FD12C090818091380236
:100D20008F5F8F7320913902821751F0E091380262
:100D3000F0E0E15EFD4F958F8093380201C0808125
:100D4000FF91EF919F918F912F910F900FBE0F9078
:100D50001F9018951F920F920FB60F9211242F9388
:100D60003F934F935F936F937F938F939F93AF9333
:100D7000BF93EF93FF938FE192E00E946807FF918A
:100D8000EF91BF91AF919F918F917F916F915F9103
:100D90004F913F912F910F900FBE0F901F9018957C
:100DA0008FE192E00E942D0721E0892B09F420E0D9
:100DB000822F0895109222021092210288EE93E071
:100DC000A0E0B0E08093230290932402A093250238
:100DD000B093260284EF91E09093200280931F024B
:100DE00085EC90E090932C0280932B0284EC90E0B1
:100DF00090932E0280932D0280EC90E0909330022D
:100E000080932F0281EC90E0909332028093310224
:100E100082EC90E0909334028093330286EC90E071
:100E20009093360280933502109238021092390264
:100E300010923A0210923B02089508950E943F04D6
:100E40000E941D070E94DC01CAE5D7E00E949703BB
:100E50002097E1F30E945A07F9CFFC01818D228D82
:100E600090E0805C9F4F821B91098F7399270895B2
:100E7000FC01918D828D981731F0828DE80FF11D64
:100E8000858D90E008958FEF9FEF0895FC01918D7F
:100E9000828D981761F0828DDF01A80FB11D5D96DC
:100EA0008C91928D9F5F9F73928F90E008958FEF4A
:100EB0009FEF089580ED96E0892B49F080E090E067
:100EC000892B29F00E94D00681110C94000008950E
:100ED000FC01848DDF01A80FB11DA35ABF4F2C91D7
:100EE000848D90E001968F739927848FA689B789A6
:100EF0002C93A089B1898C9180648C93938D848D7F
:100F0000981306C00288F389E02D80818F7D80834D
:100F10000895CF93DF93EC01888D8823C9F0EA8987
:100F2000FB89808185FD05C0A889B9898C9186FDE2
:100F30000FC00FB607FCF5CF808185FFF2CFA889DF
:100F4000B9898C9185FFEDCFCE010E946807E7CF6C
:100F5000DF91CF910895CF92DF92FF920F931F936D
:100F6000CF93DF931F92CDB7DEB76C0181E0D6013E
:100F700058968C9358975B969C915B975C968C9156
:100F80005C97981307C05096ED91FC915197808122
:100F900085FD2EC0F601038D10E00F5F1F4F0F730C
:100FA0001127F02EF601848DF81211C00FB607FC40
:100FB000F9CFD6015096ED91FC915197808185FF34
:100FC000F1CFC60169830E9468076981EBCF838DE9
:100FD000E80FF11DE35AFF4F6083D6015B960C9337
:100FE0005B975296ED91FC915397808180620CC083
:100FF000D6015696ED91FC91579760835096ED91EE
:10100000FC91519780818064808381E090E00F9013
:10101000DF91CF911F910F91FF90DF90CF900895B6
:10102000BF92CF92DF92EF92FF92CF93DF93EC01CA
:101030006A017B01B22E60E874E88EE190E0A701BE
:1010400096010E94BE092150310941095109569566
:10105000479537952795E889F98982E0808321159E
:1010600080E1380798F0E889F989108260E472E439
:101070008FE090E0A70196010E94BE09215031093E
:10108000410951095695479537952795EC85FD857A
:101090003083EE85FF852083188EEC89FD89B08230
:1010A000EA89FB89808180618083EA89FB8980816C
:1010B00088608083EA89FB89808180688083EA89EF
:1010C000FB8980818F7D8083DF91CF91FF90EF90AE
:1010D000DF90CF90BF900895CF93DF93823091053A
:1010E00010F482E090E0E091BE02F091BF0220E0B7
:1010F00030E0A0E0B0E0309739F1408151814817ED
:101100005907B8F04817590771F4828193811097F5
:1011100029F013969C938E9312972CC09093BF0244
:101120008093BE0227C02115310531F042175307C5
:1011300018F0A901DB0101C0EF019A01BD01DF0137
:101140000280F381E02DD7CF21153105F9F0281B5E
:10115000390B2430310580F48A819B81611571053A
:1011600021F0FB019383828304C09093BF0280939C
:10117000BE02FE01329644C0FE01E20FF31F8193CE
:10118000919322503109398328833AC02091BC02BF
:101190003091BD02232B41F42091020130910301D3
:1011A0003093BD022093BC022091000130910101D7
:1011B0002115310541F42DB73EB7409104015091FE
:1011C0000501241B350BE091BC02F091BD02E21732
:1011D000F307A0F42E1B3F0B2817390778F0AC015A
:1011E0004E5F5F4F2417350748F04E0F5F1F509337
:1011F000BD024093BC028193919302C0E0E0F0E015
:10120000CF01DF91CF910895CF93DF93009709F439
:1012100087C0FC01329713821282C091BE02D09126
:10122000BF02209781F420813181280F391F8091DE
:10123000BC029091BD028217930779F5F093BD022D
:10124000E093BC026DC0DE0120E030E0AE17BF07C6
:1012500050F412964D915C9113979D0141155105E3
:1012600009F1DA01F3CFB383A28340815181840F66
:10127000951F8A179B0771F48D919C911197840F8C
:10128000951F02969183808312968D919C9113975E
:10129000938382832115310529F4F093BF02E093F3
:1012A000BE023EC0D9011396FC93EE9312974D9166
:1012B0005D91A40FB51FEA17FB0779F48081918136
:1012C000840F951F0296D90111969C938E9382816B
:1012D000938113969C938E931297E0E0F0E08A81BD
:1012E0009B81009719F0FE01EC01F9CFCE01029627
:1012F00028813981820F931F2091BC023091BD0259
:101300002817390769F4309729F41092BF02109218
:10131000BE0202C013821282D093BD02C093BC02EF
:10132000DF91CF910895F8940C94000AAA1BBB1B7F
:1013300051E107C0AA1FBB1FA617B70710F0A61BD5
:10134000B70B881F991F5A95A9F780959095BC01F6
:10135000CD01089597FB072E16F4009407D077FD72
:1013600009D00E94960907FC05D03EF4909581951E
:101370009F4F0895709561957F4F0895A1E21A2EB1
:10138000AA1BBB1BFD010DC0AA1FBB1FEE1FFF1F29
:10139000A217B307E407F50720F0A21BB30BE40B79
:1013A000F50B661F771F881F991F1A9469F76095C0
:1013B0007095809590959B01AC01BD01CF0108957A
:1013C0000E94F109A59F900DB49F900DA49F800DE0
:1013D000911D11240895EE0FFF1F0590F491E02D4B
:1013E0000994A29FB001B39FC001A39F700D811DFE
:1013F0001124911DB29F700D811D1124911D08951E
:04140000F894FFCF8E
:101404000000C00280000800070001020305070B6A
:101414000D1113171D1F25292B2F353B3D4347491C
:101424004F53596165676B6D717F83898B95979D68
:10143400A3A7AD48657920746865726520667269F2
:10144400656E64203A3A3A29202054797065202246
:101454005B68616C65735D2220746F20656E7465D2
:1014640072206465627567206D6F6465002045783D
:1014740070656374656420636865636B73756D2060
:1014840000456E7465726564206465627567206DDD
:101494006F64650042726964676520413A200020E8
:1014A40042726964676520423A200068616C657322
:1014B4000063757272656E740030313233343536C0
:1014C40037383941424344454601020304050607BF
:1014D4000809000000000000000A0B0C0D0E0F0D9F
:1014E4000A006E616E00696E66006F7666002E00FB
:1014F40000000000AB0791052D0746073807890750
:00000001FF
