:100000000C945D000C9485000C9485000C94850084
:100010000C9485000C9485000C9485000C9485004C
:100020000C9485000C9485000C9485000C9485003C
:100030000C9485000C9485000C9485000C9485002C
:100040000C941C040C9485000C94C9060C94FB06BB
:100050000C9485000C9485000C9485000C9485000C
:100060000C9485000C94850000000008000201003B
:100070000003040700000000000000000102040863
:100080001020408001020408102001020408102002
:10009000040404040404040402020202020203032E
:1000A0000303030300000000250028002B000000CC
:1000B0000000240027002A002B0711241FBECFEFC9
:1000C000D8E0DEBFCDBF12E0A0E0B1E0E4E5F4E1AE
:1000D00002C005900D92A030B107D9F712E0A0E060
:1000E000B2E001C01D92A43CB107E1F710E0CDE5FC
:1000F000D0E004C02197FE010E94220ACC35D1072E
:10010000C9F70E9459070C94BB090C940000AF92E8
:10011000BF92CF92DF92EF92FF920F931F93CF93F4
:10012000DF9300D0CDB7DEB7F82EE92E062F142FBF
:10013000690187EA91E05A8379830E948E085C0105
:100140005A8179810097B9F1FC01F082E182028342
:10015000738314835583D782C682118610860E94CA
:100160006604F5016287738784879587108A1786EE
:1001700016867196C5018F559E4F11921192E81700
:10018000F907D9F7118210820E947204F501ED552A
:10019000FE4F608371838283938361E08F2D0E9481
:1001A0007A0561E0802F0E947A0561E0812F0E942C
:1001B0007A05C50102C080E090E00F900F90DF91BA
:1001C000CF911F910F91FF90EF90DF90CF90BF9054
:1001D000AF900895FC01408B67870895FC017196EC
:1001E0008F559E4F20E030E0A90161917191260F5B
:1001F000371F411D511DE817F907B9F7A2E3B4E015
:100200000E94BE0920E137E240E050E00E94F1097F
:10021000CA01B90108954F925F926F927F92AF9297
:10022000BF92CF92DF92EF92FF920F931F93CF93E3
:10023000DF93EC010E9466046B017C010E94720452
:100240002B013C015E012DE5A21A2EEFB20AF50149
:1002500080819181A281B38188539D4CAF4FBF4F64
:10026000481659066A067B06D0F032978081918144
:10027000019668EC70E00E94C9098C01918380832B
:100280008E810E94D504000F111FFE01E00FF11FA7
:10029000928B818BF50140825182628273828885C4
:1002A0009985009721F0019709F443C055C0CE010C
:1002B0000E94EE006F3F704E854F954008F062C07F
:1002C0008E859F85891799F060E088810E94B60528
:1002D00060E08A810E94B6056F858C810E94B60518
:1002E0008F858E8781E090E09987888730C0811163
:1002F00008C0688970E088810E94F20460E070E0C4
:1003000007C060E070E088810E94F204688970E0B4
:100310008A81DF91CF911F910F91FF90EF90DF9035
:10032000CF90BF90AF907F906F905F904F900C9464
:10033000F2048A859B85AC85BD85C296A11DB11D41
:100340008C159D05AE05BF05E8F419861886CA868A
:10035000DB86EC86FD8616C060E088810E94B605CB
:1003600060E08A81DF91CF911F910F91FF90EF9014
:10037000DF90CF90BF90AF907F906F905F904F9045
:100380000C94B605DF91CF911F910F91FF90EF90E4
:10039000DF90CF90BF90AF907F906F905F904F9025
:1003A00008958153863130F4E82FF0E0ED5BFE4F85
:1003B0008081089580E00895803130F4E82FF0E0E6
:1003C000ED5CFE4F808108958AE708950F931F9397
:1003D000CF93DF93CDB7DEB7A8970FB6F894DEBF03
:1003E0000FBECDBF8C0188E2EBE0F1E0DE0111969B
:1003F00001900D928A95E1F740E080E090E0242F93
:1004000030E02617370734F4F801E20FF31F50816C
:100410005A3379F460E071E00E94DD09A8960FB6C6
:10042000F894DEBF0FBECDBFDF91CF911F910F912A
:100430000895E1E0F0E0EC0FFD1FE20FF31F2081D3
:10044000520390011124820F931F4F5FD8CFCF9397
:10045000DF93E1E6F0E080E88083108283E00E9491
:10046000D204C8E0D1E061E088810E947A0561E0B1
:10047000809106010E947A0523E130E042E050E0DD
:1004800069E070E08AE090E00E9487009093140297
:10049000809313022EE030E044E050E065E070E02D
:1004A00086E090E00E9487009093120280931102F0
:1004B000E0E0F2E0108A1786109215021092160200
:1004C000109217021092180226E040E052EC61E010
:1004D00070E083E292E00E942E0869E571E083E219
:1004E00092E00E94300661E08881DF91CF910C9408
:1004F000B605FC016B3511F4178608956D3519F4B6
:1005000081E0808B089587858F3018F0608381E0CB
:1005100005C0DF01A80FB11D6C938F5F8787089519
:100520008F929F92AF92BF92CF92DF92EF92FF9203
:100530000F931F93CF93DF93CDB7DEB728970FB6F6
:10054000F894DEBF0FBECDBF8C01FC0187858930DA
:1005500009F08AC0E080FDE2EF1619F08BE2E812A4
:10056000E1C0F80183818D3219F08B3209F0DAC0D5
:10057000F80186818A3309F0D5C081810E94D101BA
:10058000B82EF80182810E94D101D82EF801A380F3
:1005900084810E94D101882EF80185810E94D101B9
:1005A000982EF80187810E94D101F82EF8018085EC
:1005B0000E94D101C82EF0E1FF9EC00C1124F80169
:1005C000678570E0C8010E94E601F82E809119024B
:1005D000882309F4BDC063E971E083E292E00E94E0
:1005E00023068F2D82958F700E94DC01682F83E295
:1005F00092E00E9425068F2D8F700E94DC01682FEB
:1006000083E292E00E944206FC1029C04D2DF0E1E9
:10061000BF9E400D112461E08DE2E81260E0809100
:100620001302909114020E94EA00492D90E1899EE4
:10063000400D112461E0EDE2AE1260E08091110204
:10064000909112020E94EA000E94660460931502D3
:1006500070931602809317029093180263C09091D2
:1006600019029111D3CF5EC08530F1F486E0E1ED3F
:10067000F1E0DE01119601900D928A95E1F7D80123
:10068000FE01319685E08E0F21919D9129134AC07C
:100690008E13FACF81E08093190267EA71E083E25A
:1006A00092E00E9430063EC08730E1F588E0E7ED39
:1006B000F1E0DE01119601900D928A95E1F7D801E3
:1006C000FE01319687E08E0F21919D9129132AC05A
:1006D0008E13FACF6AEB71E083E292E00E94230668
:1006E00080911302909114020E94EE00AB01BC01B4
:1006F0002AE030E083E292E00E94AA0665EC71E015
:1007000083E292E00E9423068091110290911202EE
:100710000E94EE00AB01BC012AE030E083E292E0EF
:100720000E94B706F8011786108A28960FB6F8942B
:10073000DEBF0FBECDBFDF91CF911F910F91FF9014
:10074000EF90DF90CF90BF90AF909F908F900895E3
:10075000FC10E8CF5BCFCF92DF92EF92FF92CF9366
:100760000E9466046B017C0183E292E00E946807AC
:10077000892B99F083E292E00E948207C82F682FAC
:1007800080E092E00E94790280911902882329F08A
:100790006C2F83E292E00E9425068091100288234C
:1007A00021F080E092E00E94900280911902811174
:1007B00028C08091150290911602A0911702B09165
:1007C00018028C599F4FAF4FBF4FC816D906EA0683
:1007D000FB06B8F040E060E08091130290911402B3
:1007E0000E94EA0040E060E08091110290911202C4
:1007F0000E94EA0060E0809108010E94B60561E075
:1008000006C061E0809108010E94B60560E0809119
:1008100006010E94B60580911302909114020E9475
:100820000B018091110290911202CF91FF90EF90F5
:10083000DF90CF900C940B011F920F920FB60F9286
:1008400011242F933F938F939F93AF93BF938091E6
:100850001B0290911C02A0911D02B0911E023091CA
:100860001A0226E0230F2D3720F40296A11DB11D98
:1008700005C029E8230F0396A11DB11D20931A027C
:1008800080931B0290931C02A0931D02B0931E0242
:1008900080911F0290912002A0912102B09122022A
:1008A0000196A11DB11D80931F0290932002A09379
:1008B0002102B0932202BF91AF919F918F913F91FE
:1008C0002F910F900FBE0F901F9018952FB7F8948F
:1008D00060911B0270911C0280911D0290911E027A
:1008E0002FBF08953FB7F89480911F029091200286
:1008F000A0912102B091220226B5A89B05C02F3FEE
:1009000019F00196A11DB11D3FBFBA2FA92F982F35
:100910008827820F911DA11DB11DBC01CD0143E0AF
:10092000660F771F881F991F4A95D1F7089578940D
:1009300084B5826084BD84B5816084BD85B58260E4
:1009400085BD85B5816085BDEEE6F0E08081816082
:100950008083E1E8F0E01082808182608083808182
:1009600081608083E0E8F0E0808181608083E1EB5A
:10097000F0E0808184608083E0EBF0E08081816042
:100980008083EAE7F0E080818460808380818260F8
:10099000808380818E7F80838081806880831092B5
:1009A000C100089580930A0108958E3008F08E509A
:1009B000877020910A0190E4299F90011124822BD5
:1009C00080937C0080917A00806480937A0080918B
:1009D0007A0086FDFCCF809178002091790090E02C
:1009E000922B08951F93CF93DF93182FEB0161E0B3
:1009F0000E947A05209711F460E004C0CF3FD10532
:100A000039F461E0812FDF91CF911F910C94B605ED
:100A1000E12FF0E0E859FF4FE491E330F9F048F4BA
:100A2000E130B9F0E230A1F584B5806284BDC8BD83
:100A300034C0E730E9F0E83019F1E43049F580914D
:100A40008000806280938000D0938B00C0938A00E6
:100A500024C084B5806884BDC7BD1FC0809180005C
:100A6000806880938000D0938900C093880015C06F
:100A70008091B00080688093B000C093B3000DC037
:100A80008091B00080628093B000C093B40005C034
:100A9000C038D1050CF0B5CFAFCFDF91CF911F910A
:100AA0000895833081F028F4813099F08230A1F0EC
:100AB00008958730A9F08830B9F08430D1F480915E
:100AC00080008F7D03C0809180008F7780938000AD
:100AD000089584B58F7702C084B58F7D84BD089555
:100AE0008091B0008F7703C08091B0008F7D80939C
:100AF000B0000895CF93DF9390E0FC01E458FF4FDE
:100B00002491FC01E057FF4F8491882361F190E02C
:100B1000880F991FFC01E255FF4FC591D491FC014C
:100B2000EC55FF4FA591B491611109C09FB7F8949E
:100B30008881209582238883EC912E230BC062301C
:100B400061F49FB7F8943881822F8095832388833E
:100B5000EC912E2B2C939FBF06C08FB7F894E881A1
:100B60002E2B28838FBFDF91CF9108951F93CF93B2
:100B7000DF93282F30E0F901E859FF4F8491F90104
:100B8000E458FF4FD491F901E057FF4FC491CC23B3
:100B9000C9F0162F81110E945105EC2FF0E0EE0FE5
:100BA000FF1FEC55FF4FA591B4918FB7F894111129
:100BB00005C09C91ED2FE095E92302C0EC91ED2B4F
:100BC000EC938FBFDF91CF911F910895CF92DF9269
:100BD000EF92FF920F931F93CF93DF936C01EB0182
:100BE0007B01E40EF51E00E010E0CE15DF0561F09C
:100BF0006991D601ED91FC910190F081E02DC60143
:100C00000995080F191FF1CFC801DF91CF911F91EE
:100C10000F91FF90EF90DF90CF90089561157105CF
:100C200079F0FB0101900020E9F73197AF01461BF5
:100C3000570BDC01ED91FC910280F381E02D0994CA
:100C400080E090E008950C940E06DC01ED91FC919B
:100C50000190F081E02D09946FED71E00C940E0687
:100C60000F931F93CF93DF93EC010E940E068C012C
:100C7000CE010E942C06800F911FDF91CF911F9112
:100C80000F9108950F931F93CF93DF93EC010E9470
:100C900025068C01CE010E942C06800F911FDF914A
:100CA000CF911F910F9108958F929F92AF92BF9213
:100CB000CF92DF92EF92FF920F931F93CF93DF9328
:100CC000CDB7DEB7A1970FB6F894DEBF0FBECDBF8C
:100CD0006C01142FE52FCB01022F19A2223008F44A
:100CE0000AE07E0121E2E20EF11C802E912CA12C63
:100CF000B12C612F7E2FA50194010E94F109029F62
:100D00001019112481E0E81AF1081A3014F4105D6A
:100D100001C0195CF7011083122FE32FCA01232BA6
:100D2000242B252B31F7B701C6010E940E06A19690
:100D30000FB6F894DEBF0FBECDBFDF91CF911F91EC
:100D40000F91FF90EF90DF90CF90BF90AF909F906A
:100D50008F9008952115310541F4DC01ED91FC914E
:100D60000190F081E02D642F09940C9454060F93A8
:100D70001F93CF93DF93EC010E94AA068C01CE0152
:100D80000E942C06800F911FDF91CF911F910F9130
:100D900008951F920F920FB60F9211242F938F93E5
:100DA0009F93EF93FF93E0913302F091340280819F
:100DB000E0913902F0913A0282FD12C09081809157
:100DC0003C028F5F8F7320913D02821751F0E091BA
:100DD0003C02F0E0ED5DFD4F958F80933C0201C039
:100DE0008081FF91EF919F918F912F910F900FBE76
:100DF0000F901F9018951F920F920FB60F9211240B
:100E00002F933F934F935F936F937F938F939F9312
:100E1000AF93BF93EF93FF9383E292E00E94A40706
:100E2000FF91EF91BF91AF919F918F917F916F91C2
:100E30005F914F913F912F910F900FBE0F901F9098
:100E4000189583E292E00E94680721E0892B09F45B
:100E500020E0822F0895E3E2F2E01382128288EE0E
:100E600093E0A0E0B0E084839583A683B78384EF0A
:100E700091E09183808385EC90E09587848784EC72
:100E800090E09787868780EC90E0918B808B81EC57
:100E900090E0938B828B82EC90E0958B848B86EC38
:100EA00090E0978B868B118E128E138E148E089580
:100EB00008950E9497040E9458070E942702C6E9DD
:100EC000D7E00E94AB032097E1F30E949607F9CF89
:100ED000FC01918D228D892F90E0805C9F4F821BB9
:100EE00091098F7399270895FC01918D828D981730
:100EF00031F0828DE80FF11D858D90E008958FEF20
:100F00009FEF0895FC01918D828D981761F0828D7D
:100F1000DF01A80FB11D5D968C91928D9F5F9F732D
:100F2000928F90E008958FEF9FEF089581E297E010
:100F3000892B49F080E090E0892B29F00E9421075D
:100F400081110C9400000895FC01848DDF01A80F2D
:100F5000B11DA35ABF4F2C91848D90E001968F73E1
:100F60009927848FA689B7892C93A089B1898C9100
:100F700080648C93938D848D981306C00288F389C6
:100F8000E02D80818F7D80830895CF93DF93EC01E6
:100F9000888D8823C9F0EA89FB89808185FD05C099
:100FA000A889B9898C9186FD0FC00FB607FCF5CFD3
:100FB000808185FFF2CFA889B9898C9185FFEDCF1B
:100FC000CE010E94A407E7CFDF91CF910895EF9261
:100FD000FF920F931F93CF93DF93EC0181E0888FF3
:100FE0009B8D8C8D981305C0E889F989808185FDDA
:100FF00024C0F62E0B8D10E00F5F1F4F0F731127CB
:10100000E02E8C8DE8120CC00FB607FCFACFE889F1
:10101000F989808185FFF5CFCE010E94A407F1CF29
:101020008B8DFE01E80FF11DE35AFF4FF0820B8F0D
:10103000EA89FB898081806207C0EE89FF8960832D
:10104000E889F98980818064808381E090E0DF9184
:10105000CF911F910F91FF90EF900895CF92DF9263
:10106000EF92FF921F93CF93DF93EC016A017B0114
:10107000122F60E874E88EE190E0A70196010E94CB
:10108000F109DA01C9010197A109B109B695A7953E
:1010900097958795AC01E889F98982E080834115AD
:1010A00080E15807A8F0E889F989108260E472E4C9
:1010B0008FE090E0A70196010E94F109BA01A90111
:1010C0004150510961097109769567955795479582
:1010D000EC85FD855083EE85FF854083188EEC8975
:1010E000FD891083EA89FB89808180618083EA8998
:1010F000FB89808188608083EA89FB8980818068A0
:101100008083EA89FB8980818F7D8083DF91CF9105
:101110001F91FF90EF90DF90CF900895CF93DF93D2
:101120008230910510F482E090E0E091C202F091EB
:10113000C30220E030E0C0E0D0E0309711F1408100
:10114000518148175907C0F04817590761F4828147
:101150009381209719F09B838A832BC09093C302BD
:101160008093C20226C02115310519F0421753079A
:1011700018F49A01BE01DF01EF010280F381E02D36
:10118000DCCF2115310509F1281B390B243031053D
:1011900090F412968D919C9113976115710521F031
:1011A000FB019383828304C09093C3028093C202A5
:1011B000FD01329644C0FD01E20FF31F819391932C
:1011C000225031092D933C933AC02091C0023091B6
:1011D000C102232B41F4209102013091030130938D
:1011E000C1022093C002209100013091010121151C
:1011F000310541F42DB73EB74091040150910501EE
:10120000241B350BE091C002F091C102E217F307F5
:10121000A0F42E1B3F0B2817390778F0AC014E5F66
:101220005F4F2417350748F04E0F5F1F5093C102E0
:101230004093C0028193919302C0E0E0F0E0CF01BF
:10124000DF91CF9108950F931F93CF93DF93009772
:1012500009F48CC0FC013297138212820091C20201
:101260001091C3020115110581F420813181820F93
:10127000931F2091C0023091C1022817390779F5D8
:10128000F093C102E093C00271C0D80140E050E089
:10129000AE17BF0750F412962D913C911397AD01F4
:1012A0002115310509F1D901F3CF9D01DA0133830D
:1012B000228360817181860F971F8217930769F4DB
:1012C000EC0128813981260F371F2E5F3F4F318374
:1012D00020838A819B8193838283452B29F4F09319
:1012E000C302E093C20242C01396FC93EE9312979E
:1012F000ED01499159919E01240F351FE217F30723
:1013000071F480819181840F951F029611969C93B0
:101310008E938281938113969C938E931297E0E033
:10132000F0E0D80112968D919C911397009719F0D7
:10133000F8018C01F6CF8D919C9198012E5F3F4F63
:10134000820F931F2091C0023091C10228173907E4
:1013500069F4309729F41092C3021092C20202C0BD
:10136000138212821093C1020093C002DF91CF91C9
:101370001F910F910895F8940C94280A0E94130A63
:10138000A59F900DB49F900DA49F800D911D1124D9
:101390000895AA1BBB1B51E107C0AA1FBB1FA617BC
:1013A000B70710F0A61BB70B881F991F5A95A9F70E
:1013B00080959095BC01CD01089597FB072E16F4FA
:1013C000009407D077FD09D00E94C90907FC05D019
:1013D0003EF4909581959F4F0895709561957F4F4C
:1013E0000895A1E21A2EAA1BBB1BFD010DC0AA1F66
:1013F000BB1FEE1FFF1FA217B307E407F50720F07E
:10140000A21BB30BE40BF50B661F771F881F991FF8
:101410001A9469F760957095809590959B01AC0141
:10142000BD01CF010895A29FB001B39FC001A39F4A
:10143000700D811D1124911DB29F700D811D11240D
:10144000911D0895EE0FFF1F0590F491E02D099472
:04145000F894FFCF3E
:101454000000C40220000800070001020305070B76
:101464000D1113171D1F25292B2F353B3D434749CC
:101474004F53596165676B6D717F83898B95979D18
:10148400A3A7AD303132333435363738394142438E
:10149400444546010203040506070809000000004C
:1014A4000000000A0B0C0D0E0F4865792074686566
:1014B400726520667269656E64203A3A3A29202082
:1014C4005479706520225B68616C65735D222074B9
:1014D4006F20656E746572206465627567206D6F38
:1014E400646500204578706563746564206368658D
:1014F400636B73756D2000456E746572656420645A
:1015040065627567206D6F64650042726964676522
:1015140020413A20002042726964676520423A20E3
:101524000068616C65730063757272656E74000D9A
:101534000A006E616E00696E66006F7666002E00AA
:1015440000000000E707E605680782077407C5077F
:00000001FF
